:020000040800F2
:1000000000000120E50100080000000000000000E1
:10001000E1010008E1010008E10100080000000022
:10002000000000000000000000000000E1010008E6
:10003000E101000800000000E1010008E101000802
:10004000E1010008E1010008E1010008E101000808
:10005000E1010008E1010008E1010008E1010008F8
:10006000E1010008E1010008E1010008E1010008E8
:10007000E1010008E1010008E1010008E1010008D8
:10008000E1010008E1010008E1010008E1010008C8
:10009000E1010008E1010008E1010008E1010008B8
:1000A000E1010008E1010008E1010008E1010008A8
:1000B000E1010008E1010008E1010008E101000898
:1000C000E1010008E1010008E1010008E101000888
:1000D000E1010008E1010008E1010008E101000878
:1000E000E1010008E1010008E1010008E101000868
:1000F000E1010008E1010008E1010008E101000858
:10010000E1010008E1010008E1010008E101000847
:10011000E1010008E1010008E1010008E101000837
:10012000E1010008E1010008E1010008E101000827
:1001300000000000000000000000000000000000BF
:1001400000000000000000000000000000000000AF
:10015000000000000000000000000000000000009F
:10016000000000000000000000000000000000008F
:10017000000000000000000000000000000000007F
:10018000000000000000000000000000000000006F
:10019000000000000000000000000000000000005F
:1001A000000000000000000000000000000000004F
:1001B000000000000000000000000000000000003F
:1001C000000000000000000000000000000000002F
:1001D0000000000000000000000000005FF8E0F1F7
:1001E000FEE700BF684620F007018D461448154918
:1001F00008B5814209D0144B984206D2C243134439
:1002000023F00302043201F055FD1048104B9842D0
:1002100007D2C243134423F003020432002101F049
:10022000BFFD0C4B0C4A23F0684323F07F0343F0DF
:100230000063936000F020FE00F0CEFCFEE700BFFC
:1002400000000020401E00081800002018000020B8
:10025000300000200000000000ED00E00E490F48D3
:1002600008B5814209D00E4B984206D2C2431A44C7
:1002700022F00302043201F01DFD0A480A4B9842A5
:1002800009D2C2431A4422F0030204320021BDE81D
:10029000084001F085BD08BD401E00080000002098
:1002A0001800002018000020300000200D4A0E49E0
:1002B00090690E4B40F004009061486820F00F00F8
:1002C0004860486840F003004860916941F02001AF
:1002D00091611A6822F470621A601A6842F44072DE
:1002E0001A607047001002400008014000140140ED
:1002F00042F6E06382B00190019A03FB02F301939E
:10030000019B2BB1019B013B0193019B002BF9D178
:1003100002B070471449154B8A6910B442F00802C4
:100320008A615A68124822F0704222F470025A60C0
:100330005A68002442F0E04242F4E0025A60DA686F
:1003400042F0A002DA608A6942F010028A611A68FB
:1003500022F070621A601A6842F040721A600460FB
:100360005DF8044B704700BF00100240000C0140D4
:10037000980122420E4B10B45A680E4C22F47002BF
:100380005A605A680C4842F4E0025A604EF6602205
:10039000012121600160013AFDD14EF6602305493B
:1003A0000A60013BFDD1044A5DF8044B13607047BD
:1003B000000C0140B4812142BC812142134A10B497
:1003C0005368134823F4700353604EF6602351685A
:1003D000002441F4E00151600460013BFDD14EF680
:1003E00060220C490B60013AFDD1094B01221A60D1
:1003F0004EF66023013BFDD1064B01221A604EF6FA
:100400006023013BFDD15DF8044B7047000C0140B7
:10041000BC812142B4812142134B10B45A68134964
:1004200022F470025A605A68002442F4E0025A60D2
:100430004EF660230C60013BFDD14EF660230C4A62
:100440001060013BFDD1094B01221A604EF660237A
:10045000013BFDD14EF6602204490B60013AFDD10B
:100460005DF8044B704700BF000C0140BC81214285
:10047000B4812142194A10B45368194823F4700317
:1004800053604EF660235168002441F4E00151604E
:100490000460013BFDD1134B01221A604EF660232C
:1004A000013BFDD10E4B01221A604EF66023013B49
:1004B000FDD10D4A126842B14EF66020084A136021
:1004C0000138FDD15DF8044B70470549074A0B60C0
:1004D000012013605DF8044B704700BF000C014021
:1004E000BC812142B481214234812142888122424F
:1004F000F0B4144E144B31465A68002722F47002AF
:100500005A605C68114D44F4E0045C6008220124E8
:1005100037604EF66023013BFDD1C3092B604EF6D8
:1005200060234000C0B2013BFDD14EF660230C6059
:10053000013BFDD1013A12F0FF020B60E9D1F0BCA2
:10054000704700BFBC812142000C0140B4812142B0
:10055000F0B5002001273E460546134BDFF854E076
:100560005A68124922F470025A605A68104C42F4D8
:10057000E0025A600822CEF800704EF660230D604B
:10058000013BFDD14EF660230E60013BFDD14000E2
:100590002368C0B2013A184312F0FF02C0B2ECD196
:1005A000024B1A60F0BD00BF000C0140BC8121422B
:1005B00034812142B4812142F8B51C4B06465A6869
:1005C0000D4622F470025A605A68DFF868E042F47F
:1005D000E0025A604EF66022154F0124CEF800402A
:1005E0003C60013AFDD14EF6602312490A60013B9E
:1005F000FDD10F4AD0201360FFF77AFFFFF73AFFD3
:1006000010B90D4B01221A603046FFF771FFFFF75A
:1006100031FF2846FFF76CFFFFF72CFFFFF7CEFEF8
:100620004EF66023013BFDD1F8BD00BF000C014038
:10063000BC812142B481214288812242F8B5384BE5
:1006400005465A68374E22F470025A605A68364C92
:1006500042F4E0025A604EF66022012131602160CE
:10066000013AFDD14EF660232E490A60013BFDD1CF
:100670002D4CD0202360FFF73BFFFFF7FBFEE8B2D5
:10068000FFF736FFFFF7F6FE254B264D5A6801208F
:1006900022F470025A604EF66022596841F4E0017B
:1006A000596028602060013AFDD14EF660231D4953
:1006B0000A60013BFDD11C4627461B4ED12033600A
:1006C000FFF716FFFFF7D6FE154B16495A680125AE
:1006D00022F470025A605A68304642F4E0025A60CE
:1006E000883E0D6008224EF660230760013BFDD175
:1006F0004EF660230560013BFDD164003168E4B231
:10070000531E0C4313F0FF02E4B2ECD1064B012060
:100710001A60FFF781FEFFF751FE2046F8BD00BFCB
:10072000000C0140B4812142BC812142F8B5714BDB
:1007300004465A68704E22F470025A605A686F4D2F
:1007400042F4E0025A604EF66022012131602960D5
:10075000013AFDD14EF6602367490A60013BFDD1A5
:10076000664DD0202B60FFF7C3FEFFF783FE2046C7
:10077000FFF7BEFEFFF77EFE5E4B5F4E5A6801201C
:1007800022F470025A604EF66022596841F4E0018A
:10079000596030602860013AFDD14EF66023564919
:1007A0000A60013BFDD11D46544FD1203B60FFF74D
:1007B0009FFEFFF75FFE38462F464E4B4E495A6864
:1007C000012622F470025A605A68DFF834E142F4DC
:1007D000E0025A600E6008224EF660230760013B7B
:1007E000FDD14EF660230660013BFDD16D00DEF8C1
:1007F0000010EDB2531E0D4313F0FF02EDB2EBD12A
:100800003E4E01203260FFF707FEFFF7D7FD394B60
:1008100039485A68012122F470025A605A680C441F
:1008200042F4E0025A604EF6602201603160013A03
:10083000FDD14EF6602330490A60013BFDD12F4EB9
:10084000D0203360FFF754FEFFF714FEE0B2FFF74D
:100850004FFEFFF70FFE274B274C5A68012022F46A
:1008600070025A604EF66022596841F4E001596006
:1008700020603060013AFDD14EF660231E490A60C7
:10088000013BFDD11C461D4FD1203B60FFF730FEE0
:10089000FFF7F0FD38462746164B17495A680126E0
:1008A00022F470025A605A68DFF854E042F4E00221
:1008B0005A600E6008224EF660230760013BFDD1AE
:1008C0004EF660230660013BFDD16400DEF80010A7
:1008D000E4B2531E0C4313F0FF02E4B2EBD1074B1A
:1008E00001201A60FFF798FDFFF768FD04EB052073
:1008F00000B2F8BD000C0140B4812142BC8121420C
:1009000034812142364838B58369364A43F00803BA
:1009100083615368344C23F0704323F470035360B5
:100920005168002541F0E04141F4E0015160D16897
:100930002E4B41F0A001D160816941F0100181612D
:10094000116821F070611160116841F0407111600F
:100950002560013BFDD1234B254C5A68254822F4E4
:1009600070025A605A68012142F4E0025A604EF661
:10097000602221600160013AFDD14EF660231C49DE
:100980000A60013BFDD11B4AD0201360FFF7B0FD88
:10099000FFF770FD10B9184B01221A606B20FFF7AA
:1009A000A7FDFFF767FD0020FFF7A2FDFFF762FD3F
:1009B000FFF704FD4EF66023013BFDD1192007210E
:1009C000FFF7FAFD1A200621FFF7F6FD1B2018217C
:1009D000FFF7F2FD1C200121FFF7EEFD38BD00BF3F
:1009E00000100240000C014098012242808D5B0003
:1009F000B4812142BC8121428881224238B5284BF2
:100A00000D4603FB00F000F08DFF0446280100F0C6
:100A100089FF0146204601F091F8054601F02AF9C8
:100A200084B2204600F082FF0146284600F0C8FE4E
:100A30004FF0834100F0CEFF01F01CF9194B00EBA1
:100A400004109A69184942F004029A619C69174A95
:100A500044F480449C614C6880B224F47F644C6010
:100A60004C6844F40B644C60D96841F48041D9600F
:100A7000D96821F48041D960108193899BB243F4F5
:100A8000005343F00C03938193899BB243F480732A
:100A9000938193899BB243F02003938138BD00BFBB
:100AA00040420F00001002400008014000380140A1
:100AB000034B1A46988013885B06FCD5704700BF2D
:100AC000003801403E4B0028B4BF2D212B211A468F
:100AD000998013885906FCD52DE9F047384F002836
:100AE0003946B8BF4042374A374C384BB8BF00B2DE
:100AF00082FB002C84FB004E83FB00234FEAE0794D
:100B0000334CC9EBAE0EC9EB6C1CC9EBA313314AD5
:100B10005FFA8EF85FFA8CFCDBB2A4FB086582FBFF
:100B200000A2A4FB0CA6A4FB03A4ED08F608E408AD
:100B3000C9EB223204EB84040EEB8E0E05EB850527
:100B400006EB86063032A0EB4E00A8EB4505ACEB79
:100B50004606A3EB4403D2B2C0B2EDB2F6B2DCB2A9
:100B6000BA800B88164A5B06FBD5114604F13003A8
:100B7000DBB293800B88124A5F06FBD5114606F163
:100B80003003DBB293800B880D4A5E06FBD511461D
:100B90003035EDB295800B88094A5C06FBD51146CD
:100BA0003030C0B290800B88054A5806FBD51146FC
:100BB0002E2393800B885B06FCD5BDE8F08700BF31
:100BC000003801401F85EB5167666666D34D6210A1
:100BD000CDCCCCCCAD8BDB682DE9F84FFFF766FBB5
:100BE00048204FF41651FFF709FFFFF78BFEDFF89F
:100BF0007892DFF87882DFF878B2954DDFF874A24A
:100C00003B20FFF71BFD04463C20FFF717FD00EBE0
:100C1000042000B200F030FB8BA3D3E9002300F0E6
:100C2000BBFC00F0A1FD8B4B80B219465822A9F8FD
:100C300000009A800B88874A5C06FBD511463A2350
:100C400093800B88834C5B06FBD500B2FFF73AFF1D
:100C50003D20FFF7F3FC06463E20FFF7EFFC00EBDC
:100C6000062000B200F008FB77A3D3E9002300F0D0
:100C700093FC00F079FD214680B25923A8F80000CA
:100C8000A3800B88734A5F06FBD511463A239380F5
:100C90000B88704C5E06FBD500B2FFF713FF3F20B8
:100CA000FFF7CCFC06464020FFF7C8FC00EB06200F
:100CB00000B200F0E1FA64A3D3E9002300F06CFC79
:100CC00000F052FD214680B25A23ABF80000A38009
:100CD0000B88604A5C06FBD511463A2393800B884B
:100CE0005C4C5A06FBD500B2FFF7ECFE21460D2303
:100CF000A3800B88574A5B06FBD511460A239380D5
:100D00000B885F06FCD54120FFF798FC4EF6602368
:100D1000514A06465168012021F470015160516822
:100D200041F4E00151602860CAF80000013BFDD1A8
:100D30002B604EF66023013BFDD1CAF80030D02075
:100D4000FFF7D6FBFFF796FB4220FFF7D1FBFFF73B
:100D500091FB4EF66023404A0120516821F4700156
:100D60005160516841F4E00151602860CAF8000008
:100D7000013BFDD12B604EF66023013BFDD11C46AB
:100D80002746CAF80030D120FFF7B2FBFFF772FB0D
:100D9000314B01215A68084622F470025A605A68A1
:100DA00042F4E0025A6029602C4908224EF6602382
:100DB000CAF80070013BFDD14EF66023CAF800006E
:100DC000013BFDD164000B68E4B2013A1C4312F010
:100DD000FF02E4B2EAD1CAF800200120FFF71CFBB1
:100DE000FFF7ECFA04EB062000B200F54E5010308D
:100DF00000F042FA00221A4B00F0CEFB0022194B01
:100E000000F0EEF800F0B0FC00B2FFF75BFE114B13
:100E1000542219469A800B880E4A5E06FBD511466D
:100E20003A2393800B880B4A5C06FBD511460D23B1
:100E300093800B88074A5806FBD511460A239380F6
:100E40000B885B06FCD5DBE6666666666666304048
:100E5000B481214200380140000C0140348121421C
:100E600000006940008041401A0000202A00002054
:100E700018000020BC8121423C4B30B418683C492A
:100E800040F0010018605D6882B02940596019681F
:100E9000002021F0847121F48031196019684FF429
:100EA0001F0421F48021196059681A4621F4FE01BB
:100EB00059609C6000900190196841F4803119607C
:100EC00003E0009BB3F5A06F09D0136803F400336F
:100ED0000193009B01330093019B002BF1D0234B26
:100EE0001B6813F4003318BF01230193019B012BEE
:100EF00006D0204B4FF000629A6002B030BC7047C1
:100F00001D4A1A4B1068194640F010001060106816
:100F100020F003001060106840F0020010605A6872
:100F20005A605A685A605A6842F480625A605A6835
:100F300022F47C125A605A6842F4E8125A601A6825
:100F400042F080721A600B68084A9B01FBD511467B
:100F5000536823F003035360536843F00203536064
:100F60004B6803F00C03082BFAD1C2E700100240D3
:100F70000000FFF800ED00E000200240114A536835
:100F800003F00C03082B0ED153685168C3F383435D
:100F9000C90303F1020310D5526892030DD40A4A23
:100FA00002FB03F300E0084B064A08495268C2F30B
:100FB00003128A5CD3400B617047054A02FB03F3BE
:100FC000F2E700BF0010024000127A00000000208B
:100FD00000093D0081F0004102E000BF83F00043C2
:100FE00030B54FEA41044FEA430594EA050F08BFC4
:100FF00090EA020F1FBF54EA000C55EA020C7FEA88
:10100000645C7FEA655C00F0E2804FEA5454D4EB04
:101010005555B8BF6D420CDD2C4480EA020281EACE
:10102000030382EA000083EA010180EA020281EA06
:101030000303362D88BF30BD11F0004F4FEA013158
:101040004FF4801C4CEA113102D0404261EB410167
:1010500013F0004F4FEA03334CEA133302D05242ED
:1010600063EB430394EA050F00F0A780A4F10104A9
:10107000D5F1200E0DDB02FA0EFC22FA05F28018E3
:1010800041F1000103FA0EF2801843FA05F35941C9
:101090000EE0A5F120050EF1200E012A03FA0EFC48
:1010A00028BF4CF0020C43FA05F3C01851EBE37172
:1010B00001F0004507D54FF0000EDCF1000C7EEB8F
:1010C00000006EEB0101B1F5801F1BD3B1F5001FCD
:1010D0000CD349085FEA30004FEA3C0C04F10104EC
:1010E0004FEA445212F5800F80F09A80BCF1004F15
:1010F00008BF5FEA500C50F1000041EB045141EA97
:10110000050130BD5FEA4C0C404141EB010111F497
:10111000801FA4F10104E9D191F0000F04BF014642
:101120000020B1FA81F308BF2033A3F10B03B3F120
:1011300020020CDA0C3208DD02F1140CC2F10C02B0
:1011400001FA0CF021FA02F10CE002F11402D8BF0E
:10115000C2F1200C01FA02F120FA0CFCDCBF41EADA
:101160000C019040E41AA2BF01EB0451294330BDA9
:101170006FEA04041F3C1CDA0C340EDC04F1140486
:10118000C4F1200220FA04F001FA02F340EA03005D
:1011900021FA04F345EA030130BDC4F10C04C4F1A3
:1011A000200220FA02F001FA04F340EA0300294683
:1011B00030BD21FA04F0294630BD94F0000F83F4CD
:1011C000801306BF81F480110134013D4EE77FEAB0
:1011D000645C18BF7FEA655C29D094EA050F08BFFC
:1011E00090EA020F05D054EA000C04BF19461046DD
:1011F00030BD91EA030F1EBF0021002030BD5FEA21
:10120000545C05D14000494128BF41F0004130BD48
:1012100014F580043CBF01F5801130BD01F000459C
:1012200045F0FE4141F470014FF0000030BD7FEA0F
:10123000645C1ABF194610467FEA655C1CBF0B460A
:10124000024650EA013406BF52EA033591EA030F21
:1012500041F4002130BD00BF90F0000F04BF002119
:10126000704730B54FF4806404F132044FF000054C
:101270004FF0000150E700BF90F0000F04BF0021C5
:10128000704730B54FF4806404F1320410F000452B
:1012900048BF40424FF000013EE700BF42004FEA26
:1012A000E2014FEA31014FEA02701FBF12F07F43A3
:1012B00093F07F4F81F06051704792F0000F14BFA0
:1012C00093F07F4F704730B54FF4607401F00045E4
:1012D00021F0004120E700BF50EA010208BF70473B
:1012E00030B54FF000050AE050EA010208BF704730
:1012F00030B511F0004502D5404261EB41014FF499
:10130000806404F132045FEA915C3FF4DCAE4FF09C
:1013100003025FEADC0C18BF03325FEADC0C18BF83
:10132000033202EBDC02C2F1200300FA03FC20FAD4
:1013300002F001FA03FE40EA0E0021FA02F1144421
:10134000C1E600BF70B54FF0FF0C4CF4E06C1CEA36
:1013500011541DBF1CEA135594EA0C0F95EA0C0FAB
:1013600000F0DEF82C4481EA030621EA4C5123EA1E
:101370004C5350EA013518BF52EA033541F480114D
:1013800043F4801338D0A0FB02CE4FF00005E1FB00
:1013900002E506F00042E0FB03E54FF00006E1FB4A
:1013A00003569CF0000F18BF4EF0010EA4F1FF048D
:1013B000B6F5007F64F5407404D25FEA4E0E6D41CD
:1013C00046EB060642EAC62141EA55514FEAC520DE
:1013D00040EA5E504FEACE2EB4F1FD0C88BFBCF55A
:1013E000E06F1ED8BEF1004F08BF5FEA500E50F10B
:1013F000000041EB045170BD06F0004646EA0101D1
:1014000040EA020081EA0301B4EB5C04C2BFD4EB02
:101410000C0541EA045170BD41F480114FF0000EFB
:10142000013C00F3AB8014F1360FDEBF002001F069
:10143000004170BDC4F10004203C35DA0C341BDCE3
:1014400004F11404C4F1200500FA05F320FA04F0B5
:1014500001FA05F240EA020001F0004221F00041E9
:1014600010EBD37021FA04F642EB06015EEA430E5C
:1014700008BF20EAD37070BDC4F10C04C4F120058C
:1014800000FA04F320FA05F001FA04F240EA02003F
:1014900001F0004110EBD37041F100015EEA430E10
:1014A00008BF20EAD37070BDC4F1200500FA05F230
:1014B0004EEA020E20FA04F301FA05F243EA0203AF
:1014C00021FA04F001F0004121FA04F220EA0200BE
:1014D00000EBD3705EEA430E08BF20EAD37070BD04
:1014E00094F0000F0FD101F00046400041EB0101E4
:1014F00011F4801F08BF013CF7D041EA060195F0C6
:10150000000F18BF704703F00046520043EB03037F
:1015100013F4801F08BF013DF7D043EA060370476C
:1015200094EA0C0F0CEA135518BF95EA0C0F0CD077
:1015300050EA410618BF52EA4306D1D181EA0301BD
:1015400001F000414FF0000070BD50EA410606BFB7
:101550001046194652EA430619D094EA0C0F02D1FC
:1015600050EA013613D195EA0C0F05D152EA033641
:101570001CBF104619460AD181EA030101F000415F
:1015800041F0FE4141F470014FF0000070BD41F0A8
:10159000FE4141F4780170BD70B54FF0FF0C4CF482
:1015A000E06C1CEA11541DBF1CEA135594EA0C0FA1
:1015B00095EA0C0F00F0A7F8A4EB050481EA030EEE
:1015C00052EA03354FEA013100F088804FEA0333D5
:1015D0004FF0805545EA131343EA12634FEA0222A3
:1015E00045EA111545EA10654FEA00260EF0004164
:1015F0009D4208BF964244F1FD0404F5407402D2B6
:101600005B084FEA3202B61A65EB03055B084FEA46
:1016100032024FF480104FF4002CB6EB020E75EB43
:10162000030E22BFB61A754640EA0C005B084FEA6B
:101630003202B6EB020E75EB030E22BFB61A7546E8
:1016400040EA5C005B084FEA3202B6EB020E75EB33
:10165000030E22BFB61A754640EA9C005B084FEAAB
:101660003202B6EB020E75EB030E22BFB61A7546B8
:1016700040EADC0055EA060E18D04FEA051545EAA7
:1016800016754FEA06164FEAC30343EA52734FEA50
:10169000C2025FEA1C1CC0D111F4801F0BD141EAC9
:1016A00000014FF000004FF0004CB6E711F4801F2E
:1016B00004BF01430020B4F1FD0C88BFBCF5E06F0E
:1016C0003FF6AFAEB5EB030C04BFB6EB020C5FEA1E
:1016D000500C50F1000041EB045170BD0EF0004E73
:1016E0004EEA113114EB5C04C2BFD4EB0C0541EAA5
:1016F000045170BD41F480114FF0000E013C90E6A2
:1017000045EA060E8DE60CEA135594EA0C0F08BF65
:1017100095EA0C0F3FF43BAF94EA0C0F0AD150EA64
:1017200001347FF434AF95EA0C0F7FF425AF1046F7
:1017300019462CE795EA0C0F06D152EA03353FF41F
:10174000FDAE1046194622E750EA410618BF52EA9C
:1017500043067FF4C5AE50EA41047FF40DAF52EA70
:1017600043057FF4EBAE12E74FEA410212F5001297
:1017700015D211D56FF47873B3EB625212D94FEAD8
:10178000C12343F0004343EA505311F0004F23FAC2
:1017900002F018BF404270474FF00000704750EA17
:1017A000013005D111F0004008BF6FF000407047D4
:1017B0004FF00000704700BF80F0004002E000BF23
:1017C00081F0004142001FBF5FEA410392EA030F2C
:1017D0007FEA226C7FEA236C6AD04FEA1262D2EB76
:1017E0001363C1BFD218414048404140B8BF5B427B
:1017F000192B88BF704710F0004F40F4000020F014
:101800007F4018BF404211F0004F41F4000121F029
:101810007F4118BF494292EA030F3FD0A2F1010273
:1018200041FA03FC10EB0C00C3F1200301FA03F1B1
:1018300000F0004302D5494260EB4000B0F5000FD4
:1018400013D3B0F1807F06D340084FEA310102F193
:101850000102FE2A51D2B1F1004F40EBC25008BF45
:1018600020F0010040EA03007047490040EB00000F
:1018700010F4000FA2F10102EDD1B0FA80FCACF13E
:10188000080CB2EB0C0200FA0CF0AABF00EBC2503D
:1018900052421843BCBFD0401843704792F0000F2B
:1018A00081F4000106BF80F400000132013BB5E77E
:1018B0004FEA41037FEA226C18BF7FEA236C21D0F4
:1018C00092EA030F04D092F0000F08BF0846704759
:1018D00090EA010F1CBF0020704712F07F4F04D127
:1018E000400028BF40F00040704712F100723CBF3A
:1018F00000F50000704700F0004343F0FE4040F464
:10190000000070477FEA226216BF08467FEA236321
:101910000146420206BF5FEA412390EA010F40F40C
:10192000800070474FF0000304E000BF10F0004358
:1019300048BF40425FEA000C08BF704743F096433F
:1019400001464FF000001CE050EA010208BF70475A
:101950004FF000030AE000BF50EA010208BF7047E1
:1019600011F0004302D5404261EB41015FEA010CF6
:1019700002BF84460146002043F0B64308BFA3F1EE
:101980008053A3F50003BCFA8CF2083AA3EBC253D0
:1019900010DB01FA02FC634400FA02FCC2F12002EF
:1019A000BCF1004F20FA02F243EB020008BF20F026
:1019B0000100704702F1200201FA02FCC2F120028C
:1019C00050EA4C0021FA02F243EB020008BF20EA81
:1019D000DC7070474FF0FF0C1CEAD0521EBF1CEAAF
:1019E000D15392EA0C0F93EA0C0F6FD01A4480EA9D
:1019F000010C400218BF5FEA41211ED04FF0006386
:101A000043EA501043EA5111A0FB01310CF00040B1
:101A1000B1F5000F3EBF490041EAD3715B0040EAD7
:101A2000010062F17F02FD2A1DD8B3F1004F40EBA7
:101A3000C25008BF20F00100704790F0000F0CF07A
:101A4000004C08BF49024CEA502040EA51207F3A3E
:101A5000C2BFD2F1FF0340EAC250704740F4000019
:101A60004FF00003013A5DDC12F1190FDCBF00F00A
:101A700000407047C2F10002410021FA02F1C2F1B8
:101A8000200200FA02FC5FEA310040F1000053EA54
:101A90004C0308BF20EADC70704792F0000F00F0A2
:101AA000004C02BF400010F4000F013AF9D040EAA8
:101AB0000C0093F0000F01F0004C02BF490011F43C
:101AC000000F013BF9D041EA0C018FE70CEAD1533A
:101AD00092EA0C0F18BF93EA0C0F0AD030F0004CBA
:101AE00018BF31F0004CD8D180EA010000F000406E
:101AF000704790F0000F17BF90F0004F084691F02C
:101B0000000F91F0004F14D092EA0C0F01D1420265
:101B10000FD193EA0C0F03D14B0218BF084608D12E
:101B200080EA010000F0004040F0FE4040F4000078
:101B3000704740F0FE4040F4400070474FF0FF0C0B
:101B40001CEAD0521EBF1CEAD15392EA0C0F93EA52
:101B50000C0F69D0A2EB030280EA010C49024FEAA4
:101B6000402037D04FF0805343EA111143EA10135D
:101B70000CF000408B4238BF5B0042F17D024FF415
:101B8000000C8B4224BF5B1A40EA0C00B3EB510FF0
:101B900024BFA3EB510340EA5C00B3EB910F24BFD9
:101BA000A3EB910340EA9C00B3EBD10F24BFA3EB5E
:101BB000D10340EADC001B0118BF5FEA1C1CE0D126
:101BC000FD2A3FF650AF8B4240EBC25008BF20F0D9
:101BD000010070470CF0004C4CEA50207F32C2BF2D
:101BE000D2F1FF0340EAC250704740F400004FF0CA
:101BF0000003013A37E792F0000F00F0004C02BFFB
:101C0000400010F4000F013AF9D040EA0C0093F0C4
:101C1000000F01F0004C02BF490011F4000F013B1E
:101C2000F9D041EA0C0195E70CEAD15392EA0C0F86
:101C300008D142027FF47DAF93EA0C0F7FF470AFBE
:101C4000084676E793EA0C0F04D14B023FF44CAF01
:101C500008466EE730F0004C18BF31F0004CCAD196
:101C600030F000427FF45CAF31F000437FF43CAFD2
:101C70005FE700BF42000ED2B2F1FE4F0BD34FF030
:101C80009E03B3EB126209D44FEA002343F00043F2
:101C900023FA02F070474FF00000704712F1610F15
:101CA00001D1420202D14FF0FF3070474FF00000E7
:101CB000704700BF844641EA000313F0030349D193
:101CC000403A23D30B6803604B6843608B688360A2
:101CD000CB68C3600B6903614B6943618B698361A6
:101CE000CB69C3610B6A03624B6A43628B6A83628E
:101CF000CB6AC3620B6B03634B6B43638B6B836376
:101D0000CB6BC36340304031403ADBD230320BD32F
:101D10000B6803604B6843608B688360CB68C3606B
:101D200010301031103AF3D20C3205D351F8043B85
:101D300040F8043B043AF9D2043208D0D2071CBF61
:101D400011F8013B00F8013B01D30B88038060468A
:101D5000704700BF082A13D38B07B1D010F00303DC
:101D6000AED0C3F10403D21ADB071CBF11F8013B4C
:101D700000F8013BA4D331F8023B20F8023B9FE777
:101D8000043AD9D3013A11F8013B00F8013BF9D2EA
:101D90000B7803704B7843708B7883706046704784
:101DA00070B4840746D0541E002A41D0CDB20346F9
:101DB00002E0621EE4B3144603F8015B9A07F8D10F
:101DC000032C2ED9CDB245EA05250F2C45EA054551
:101DD00019D9264603F11002103E0F2E42F8105C6E
:101DE00042F80C5C42F8085C42F8045C02F1100214
:101DF000F2D8A4F1100222F00F0204F00F04103206
:101E0000032C13440DD91E462246043A032A46F8F1
:101E1000045BFAD8221F22F003020432134404F0B8
:101E200003042CB1C9B21C4403F8011BA342FBD12B
:0C1E300070BC704714460346C2E700BFB8
:101E4000000000000000000001020304060708096A
:081E500000A24A04000000009A
:04000005080001E509
:00000001FF
